{
  "_format": "hh-sol-artifact-1",
  "contractName": "EnergyTrading",
  "sourceName": "contracts/EnergyTrading.sol",
  "abi": [
    {
      "inputs": [],
      "stateMutability": "nonpayable",
      "type": "constructor"
    },
    {
      "inputs": [
        {
          "internalType": "address",
          "name": "owner",
          "type": "address"
        }
      ],
      "name": "OwnableInvalidOwner",
      "type": "error"
    },
    {
      "inputs": [
        {
          "internalType": "address",
          "name": "account",
          "type": "address"
        }
      ],
      "name": "OwnableUnauthorizedAccount",
      "type": "error"
    },
    {
      "anonymous": false,
      "inputs": [
        {
          "indexed": false,
          "internalType": "uint256",
          "name": "id",
          "type": "uint256"
        },
        {
          "indexed": false,
          "internalType": "address",
          "name": "seller",
          "type": "address"
        },
        {
          "indexed": false,
          "internalType": "uint256",
          "name": "amount",
          "type": "uint256"
        },
        {
          "indexed": false,
          "internalType": "uint256",
          "name": "price",
          "type": "uint256"
        }
      ],
      "name": "EnergyListed",
      "type": "event"
    },
    {
      "anonymous": false,
      "inputs": [
        {
          "indexed": false,
          "internalType": "uint256",
          "name": "id",
          "type": "uint256"
        },
        {
          "indexed": false,
          "internalType": "address",
          "name": "buyer",
          "type": "address"
        },
        {
          "indexed": false,
          "internalType": "uint256",
          "name": "amount",
          "type": "uint256"
        }
      ],
      "name": "EnergyPurchased",
      "type": "event"
    },
    {
      "anonymous": false,
      "inputs": [
        {
          "indexed": true,
          "internalType": "address",
          "name": "previousOwner",
          "type": "address"
        },
        {
          "indexed": true,
          "internalType": "address",
          "name": "newOwner",
          "type": "address"
        }
      ],
      "name": "OwnershipTransferred",
      "type": "event"
    },
    {
      "inputs": [
        {
          "internalType": "uint256",
          "name": "offerId",
          "type": "uint256"
        }
      ],
      "name": "buyEnergy",
      "outputs": [],
      "stateMutability": "payable",
      "type": "function"
    },
    {
      "inputs": [
        {
          "internalType": "uint256",
          "name": "offerId",
          "type": "uint256"
        }
      ],
      "name": "getOffer",
      "outputs": [
        {
          "components": [
            {
              "internalType": "uint256",
              "name": "id",
              "type": "uint256"
            },
            {
              "internalType": "address",
              "name": "seller",
              "type": "address"
            },
            {
              "internalType": "uint256",
              "name": "amount",
              "type": "uint256"
            },
            {
              "internalType": "uint256",
              "name": "price",
              "type": "uint256"
            },
            {
              "internalType": "bool",
              "name": "isAvailable",
              "type": "bool"
            }
          ],
          "internalType": "struct EnergyTrading.EnergyOffer",
          "name": "",
          "type": "tuple"
        }
      ],
      "stateMutability": "view",
      "type": "function"
    },
    {
      "inputs": [
        {
          "internalType": "uint256",
          "name": "amount",
          "type": "uint256"
        },
        {
          "internalType": "uint256",
          "name": "price",
          "type": "uint256"
        }
      ],
      "name": "listEnergy",
      "outputs": [],
      "stateMutability": "nonpayable",
      "type": "function"
    },
    {
      "inputs": [],
      "name": "nextOfferId",
      "outputs": [
        {
          "internalType": "uint256",
          "name": "",
          "type": "uint256"
        }
      ],
      "stateMutability": "view",
      "type": "function"
    },
    {
      "inputs": [
        {
          "internalType": "uint256",
          "name": "",
          "type": "uint256"
        }
      ],
      "name": "offers",
      "outputs": [
        {
          "internalType": "uint256",
          "name": "id",
          "type": "uint256"
        },
        {
          "internalType": "address",
          "name": "seller",
          "type": "address"
        },
        {
          "internalType": "uint256",
          "name": "amount",
          "type": "uint256"
        },
        {
          "internalType": "uint256",
          "name": "price",
          "type": "uint256"
        },
        {
          "internalType": "bool",
          "name": "isAvailable",
          "type": "bool"
        }
      ],
      "stateMutability": "view",
      "type": "function"
    },
    {
      "inputs": [],
      "name": "owner",
      "outputs": [
        {
          "internalType": "address",
          "name": "",
          "type": "address"
        }
      ],
      "stateMutability": "view",
      "type": "function"
    },
    {
      "inputs": [],
      "name": "renounceOwnership",
      "outputs": [],
      "stateMutability": "nonpayable",
      "type": "function"
    },
    {
      "inputs": [
        {
          "internalType": "address",
          "name": "newOwner",
          "type": "address"
        }
      ],
      "name": "transferOwnership",
      "outputs": [],
      "stateMutability": "nonpayable",
      "type": "function"
    }
  ],
  "bytecode": "0x608060405234801561001057600080fd5b5033600073ffffffffffffffffffffffffffffffffffffffff168173ffffffffffffffffffffffffffffffffffffffff16036100845760006040517f1e4fbdf700000000000000000000000000000000000000000000000000000000815260040161007b919061019e565b60405180910390fd5b6100938161009960201b60201c565b506101b9565b60008060009054906101000a900473ffffffffffffffffffffffffffffffffffffffff169050816000806101000a81548173ffffffffffffffffffffffffffffffffffffffff021916908373ffffffffffffffffffffffffffffffffffffffff1602179055508173ffffffffffffffffffffffffffffffffffffffff168173ffffffffffffffffffffffffffffffffffffffff167f8be0079c531659141344cd1fd0a4f28419497f9722a3daafe3b4186f6b6457e060405160405180910390a35050565b600073ffffffffffffffffffffffffffffffffffffffff82169050919050565b60006101888261015d565b9050919050565b6101988161017d565b82525050565b60006020820190506101b3600083018461018f565b92915050565b610e28806101c86000396000f3fe60806040526004361061007b5760003560e01c80638da5cb5b1161004e5780638da5cb5b14610140578063bc8a251f1461016b578063c8a9fb5e14610187578063f2fde38b146101b05761007b565b80634579268a146100805780635f5d0655146100bd578063715018a6146100e85780638a72ea6a146100ff575b600080fd5b34801561008c57600080fd5b506100a760048036038101906100a291906108d4565b6101d9565b6040516100b491906109d4565b60405180910390f35b3480156100c957600080fd5b506100d2610295565b6040516100df91906109fe565b60405180910390f35b3480156100f457600080fd5b506100fd61029b565b005b34801561010b57600080fd5b50610126600480360381019061012191906108d4565b6102af565b604051610137959493929190610a37565b60405180910390f35b34801561014c57600080fd5b50610155610312565b6040516101629190610a8a565b60405180910390f35b610185600480360381019061018091906108d4565b61033b565b005b34801561019357600080fd5b506101ae60048036038101906101a99190610aa5565b6104b9565b005b3480156101bc57600080fd5b506101d760048036038101906101d29190610b11565b610679565b005b6101e1610852565b600160008381526020019081526020016000206040518060a0016040529081600082015481526020016001820160009054906101000a900473ffffffffffffffffffffffffffffffffffffffff1673ffffffffffffffffffffffffffffffffffffffff1673ffffffffffffffffffffffffffffffffffffffff16815260200160028201548152602001600382015481526020016004820160009054906101000a900460ff1615151515815250509050919050565b60025481565b6102a36106ff565b6102ad6000610786565b565b60016020528060005260406000206000915090508060000154908060010160009054906101000a900473ffffffffffffffffffffffffffffffffffffffff16908060020154908060030154908060040160009054906101000a900460ff16905085565b60008060009054906101000a900473ffffffffffffffffffffffffffffffffffffffff16905090565b60006001600083815260200190815260200160002090508060040160009054906101000a900460ff166103a3576040517f08c379a000000000000000000000000000000000000000000000000000000000815260040161039a90610b9b565b60405180910390fd5b80600301543410156103ea576040517f08c379a00000000000000000000000000000000000000000000000000000000081526004016103e190610c07565b60405180910390fd5b8060010160009054906101000a900473ffffffffffffffffffffffffffffffffffffffff1673ffffffffffffffffffffffffffffffffffffffff166108fc82600301549081150290604051600060405180830381858888f19350505050158015610458573d6000803e3d6000fd5b5060008160040160006101000a81548160ff0219169083151502179055507fca257078ef5cd23527d1af349a61e189d010869d5b36ebcbb53dc41d49ff988d823383600201546040516104ad93929190610c27565b60405180910390a15050565b600082116104fc576040517f08c379a00000000000000000000000000000000000000000000000000000000081526004016104f390610caa565b60405180910390fd5b6000811161053f576040517f08c379a000000000000000000000000000000000000000000000000000000000815260040161053690610d16565b60405180910390fd5b6040518060a0016040528060025481526020013373ffffffffffffffffffffffffffffffffffffffff168152602001838152602001828152602001600115158152506001600060025481526020019081526020016000206000820151816000015560208201518160010160006101000a81548173ffffffffffffffffffffffffffffffffffffffff021916908373ffffffffffffffffffffffffffffffffffffffff160217905550604082015181600201556060820151816003015560808201518160040160006101000a81548160ff0219169083151502179055509050507fdce237255d5bd98b57c816861c3b76c8e47e10382084f482135e29cb83a534be6002543384846040516106559493929190610d36565b60405180910390a16002600081548092919061067090610daa565b91905055505050565b6106816106ff565b600073ffffffffffffffffffffffffffffffffffffffff168173ffffffffffffffffffffffffffffffffffffffff16036106f35760006040517f1e4fbdf70000000000000000000000000000000000000000000000000000000081526004016106ea9190610a8a565b60405180910390fd5b6106fc81610786565b50565b61070761084a565b73ffffffffffffffffffffffffffffffffffffffff16610725610312565b73ffffffffffffffffffffffffffffffffffffffff16146107845761074861084a565b6040517f118cdaa700000000000000000000000000000000000000000000000000000000815260040161077b9190610a8a565b60405180910390fd5b565b60008060009054906101000a900473ffffffffffffffffffffffffffffffffffffffff169050816000806101000a81548173ffffffffffffffffffffffffffffffffffffffff021916908373ffffffffffffffffffffffffffffffffffffffff1602179055508173ffffffffffffffffffffffffffffffffffffffff168173ffffffffffffffffffffffffffffffffffffffff167f8be0079c531659141344cd1fd0a4f28419497f9722a3daafe3b4186f6b6457e060405160405180910390a35050565b600033905090565b6040518060a0016040528060008152602001600073ffffffffffffffffffffffffffffffffffffffff16815260200160008152602001600081526020016000151581525090565b600080fd5b6000819050919050565b6108b18161089e565b81146108bc57600080fd5b50565b6000813590506108ce816108a8565b92915050565b6000602082840312156108ea576108e9610899565b5b60006108f8848285016108bf565b91505092915050565b61090a8161089e565b82525050565b600073ffffffffffffffffffffffffffffffffffffffff82169050919050565b600061093b82610910565b9050919050565b61094b81610930565b82525050565b60008115159050919050565b61096681610951565b82525050565b60a0820160008201516109826000850182610901565b5060208201516109956020850182610942565b5060408201516109a86040850182610901565b5060608201516109bb6060850182610901565b5060808201516109ce608085018261095d565b50505050565b600060a0820190506109e9600083018461096c565b92915050565b6109f88161089e565b82525050565b6000602082019050610a1360008301846109ef565b92915050565b610a2281610930565b82525050565b610a3181610951565b82525050565b600060a082019050610a4c60008301886109ef565b610a596020830187610a19565b610a6660408301866109ef565b610a7360608301856109ef565b610a806080830184610a28565b9695505050505050565b6000602082019050610a9f6000830184610a19565b92915050565b60008060408385031215610abc57610abb610899565b5b6000610aca858286016108bf565b9250506020610adb858286016108bf565b9150509250929050565b610aee81610930565b8114610af957600080fd5b50565b600081359050610b0b81610ae5565b92915050565b600060208284031215610b2757610b26610899565b5b6000610b3584828501610afc565b91505092915050565b600082825260208201905092915050565b7f4f66666572206973206e6f7420617661696c61626c6500000000000000000000600082015250565b6000610b85601683610b3e565b9150610b9082610b4f565b602082019050919050565b60006020820190508181036000830152610bb481610b78565b9050919050565b7f496e73756666696369656e742066756e64732073656e74000000000000000000600082015250565b6000610bf1601783610b3e565b9150610bfc82610bbb565b602082019050919050565b60006020820190508181036000830152610c2081610be4565b9050919050565b6000606082019050610c3c60008301866109ef565b610c496020830185610a19565b610c5660408301846109ef565b949350505050565b7f416d6f756e74206d7573742062652067726561746572207468616e207a65726f600082015250565b6000610c94602083610b3e565b9150610c9f82610c5e565b602082019050919050565b60006020820190508181036000830152610cc381610c87565b9050919050565b7f5072696365206d7573742062652067726561746572207468616e207a65726f00600082015250565b6000610d00601f83610b3e565b9150610d0b82610cca565b602082019050919050565b60006020820190508181036000830152610d2f81610cf3565b9050919050565b6000608082019050610d4b60008301876109ef565b610d586020830186610a19565b610d6560408301856109ef565b610d7260608301846109ef565b95945050505050565b7f4e487b7100000000000000000000000000000000000000000000000000000000600052601160045260246000fd5b6000610db58261089e565b91507fffffffffffffffffffffffffffffffffffffffffffffffffffffffffffffffff8203610de757610de6610d7b565b5b60018201905091905056fea26469706673582212204398ffeea847e574dfe568d05b7cd2aff811a5efe0176c31f421b2b205102d1564736f6c63430008140033",
  "linkReferences": {},
  "deployedLinkReferences": {}
}